:0400000007EF00F016
:0A0008006D82D3ED0CF043EF15F00C
:10100000003738392F3435362A3132332D23303DED
:051010002B2569000022
:10101600000E4D6E000E4E6E000E4F6E000E506EA0
:1010260029EF0AF0AC98AC94B8964A50D96EDA6AB1
:10103600DECF13F0DECF14F0DECF15F0DECF16F0E4
:10104600000EBBEC10F013C025F014C026F015C03E
:1010560027F016C028F0000E216E240E226EF40E24
:10106600236E4A0E246EEEEC0EF021C051F022C023
:1010760052F023C053F024C054F0000E256E000E2B
:10108600266E800E276E420E286E51C021F052C089
:1010960022F053C023F054C024F0EEEC0EF021C031
:1010A6003AF022C03BF023C03CF024C03DF0000ED5
:1010B6003E6E000E3F6E800E406EBF0E416E73ECAC
:1010C6000AF03AC04DF03BC04EF03CC04FF03DC078
:1010D60050F053EF0AF0AC98AC84B8964A50D96EEB
:1010E600DA6ADECF13F0DECF14F0DECF15F0DECFF6
:1010F60016F0000EBBEC10F013C025F014C026F05D
:1011060015C027F016C028F0000E216E240E226EA0
:10111600F40E236E4A0E246EEEEC0EF021C051F052
:1011260022C052F023C053F024C054F0000E256EA6
:10113600000E266E800E276E410E286E51C021F0DD
:1011460052C022F053C023F054C024F0EEEC0EF04F
:1011560021C03AF022C03BF023C03CF024C03DF051
:10116600000E3E6E000E3F6E800E406EBF0E416E4C
:1011760073EC0AF03AC04DF03BC04EF03CC04FF065
:101186003DC050F053EF0AF0AC98AC94B8864A5084
:10119600D96EDA6ADECF13F0DECF14F0DECF15F0AB
:1011A600DECF16F0000EBBEC10F013C025F014C015
:1011B60026F015C027F016C028F0000E216E240E6A
:1011C600226EF40E236E4A0E246EEEEC0EF021C053
:1011D60051F022C052F023C053F024C054F0000E48
:1011E600256E000E266E800E276E410E286E51C0AB
:1011F60021F052C022F053C023F054C024F0EEEC8C
:101206000EF021C03AF022C03BF023C03CF024C0CF
:101216003DF0000E3E6E000E3F6E800E406EBF0E1D
:10122600416E73EC0AF03AC04DF03BC04EF03CC044
:101236004FF03DC050F053EF0AF0AC98AC84B8863E
:101246004A50D96EDA6ADECF13F0DECF14F0DECF65
:1012560015F0DECF16F0000EBBEC10F013C025F033
:1012660014C026F015C027F016C028F0000E216E17
:10127600240E226EF40E236E4A0E246EEEEC0EF051
:1012860021C051F022C052F023C053F024C054F0C4
:10129600000E256E000E266E800E276E400E286EFE
:1012A60051C021F052C022F053C023F054C024F0A4
:1012B600EEEC0EF021C03AF022C03BF023C03CF029
:1012C60024C03DF0000E3E6E000E3F6E800E406E56
:1012D600BF0E416E73EC0AF03AC04DF03BC04EF0C3
:1012E6003CC04FF03DC050F053EF0AF0AC88B896C2
:1012F6004A50D96EDA6ADECF13F0DECF14F0DECFB5
:1013060015F0DECF16F0000EBBEC10F013C025F082
:1013160014C026F015C027F016C028F0000E216E66
:10132600240E226EF40E236E4A0E246EEEEC0EF0A0
:1013360021C051F022C052F023C053F024C054F013
:10134600000E256E000E266E800E276E400E286E4D
:1013560051C021F052C022F053C023F054C024F0F3
:10136600EEEC0EF021C03AF022C03BF023C03CF078
:1013760024C03DF0000E3E6E000E3F6E800E406EA5
:10138600BF0E416E73EC0AF03AC04DF03BC04EF012
:101396003CC04FF03DC050F053EF0AF0AC88B88621
:1013A6004A50D96EDA6ADECF13F0DECF14F0DECF04
:1013B60015F0DECF16F0000EBBEC10F013C025F0D2
:1013C60014C026F015C027F016C028F0000E216EB6
:1013D600240E226EF40E236E4A0E246EEEEC0EF0F0
:1013E60021C051F022C052F023C053F024C054F063
:1013F600000E256E000E266E800E276E400E286E9D
:1014060051C021F052C022F053C023F054C024F042
:10141600EEEC0EF021C03AF022C03BF023C03CF0C7
:1014260024C03DF0000E3E6E000E3F6E800E406EF4
:10143600BF0E416E73EC0AF03AC04DF03BC04EF061
:101446003CC04FF03DC050F053EF0AF04A50D96E01
:10145600DA6A040ED926DF504B6E4C6A4C50000AED
:10146600D8B438EF0AF053EF0AF04B50000AD8B45C
:1014760015EF08F0010AD8B46EEF08F0030AD8B4E5
:10148600C7EF08F0010AD8B420EF09F0070AD8B46C
:1014960079EF09F0010AD8B4D1EF09F053EF0AF059
:1014A6004DC013F04EC014F04FC015F050C016F0EA
:1014B600A6EC12F01350AF6E4DC013F04EC014F0F0
:1014C6004FC015F050C016F0A6EC12F014C013F081
:1014D60015C014F016C015F0166A1350B06E12003F
:1014E6003D50800B466E3D503D24486E3CAE7EEF2F
:1014F6000AF080EF0AF081EF0AF048804850D8B42D
:1015060087EF0AF089EF0AF09EEF0AF04828D8A480
:101516008FEF0AF091EF0AF099EF0AF0000E3A6E9B
:10152600000E3B6E000E3C6E000E3D6E3C8E000EB5
:101536003D6EA6EF0AF0000E3A6E000E3B6E000EF0
:101546003C6E000E3D6E4150800B476E465047186C
:10155600D8B4B0EF0AF0B2EF0AF0B3EF0AF0468C57
:1015660041504124476E40AEBBEF0AF0BDEF0AF092
:10157600BEEF0AF047804750D8B4C4EF0AF0C6EF72
:101586000AF0DBEF0AF04728D8A4CCEF0AF0CEEF3A
:101596000AF0D6EF0AF0000E3E6E000E3F6E000E09
:1015A600406E000E416E408E000E416EE3EF0AF073
:1015B600000E3E6E000E3F6E000E406E000E416E37
:1015C6004850475CD8B0EAEF0AF0ECEF0AF013EFA8
:1015D6000BF046ACF1EF0AF0F3EF0AF0F5EF0AF084
:1015E600800E461A48C049F047C048F049C047F047
:1015F6003AC049F03EC03AF049C03EF03BC049F01F
:101606003FC03BF049C03FF03CC049F040C03CF011
:1016160049C040F03DC049F041C03DF049C041F0ED
:10162600000E496E485047C042F0436A425E000EC3
:10163600435A43BE28EF0BF0435009E11A0E425CB1
:10164600D8A028EF0BF02AEF0BF061EF0BF03A5021
:101656003B103C103D10D8A433EF0BF036EF0BF0E7
:10166600010E37EF0BF0000E496E000E3A6E000EBB
:101676003B6E000E3C6E000E3D6E47C048F06AEFB2
:101686000BF049A049EF0BF04BEF0BF051EF0BF0CD
:10169600D89049300109496E53EF0BF0D890493282
:1016A6003AA058EF0BF05AEF0BF05BEF0BF0498EB8
:1016B6003D343D323C323B323A32482A4750485C50
:1016C600D8A068EF0BF06AEF0BF044EF0BF046BCC6
:1016D6006FEF0BF071EF0BF0B1EF0BF04850D8A4A1
:1016E60077EF0BF079EF0BF083EF0BF0000E3A6E0D
:1016F600000E3B6E000E3C6E000E3D6ED2EF0CF0FF
:101706003E503A263F503B2240503C2241503D221B
:101716003DA090EF0BF092EF0BF03EEF0CF049A0DE
:1017260097EF0BF099EF0BF09FEF0BF0D890493045
:101736000109496EA1EF0BF0D89049323AA0A6EF05
:101746000BF0A8EF0BF0A9EF0BF0498E3D343D32BC
:101756003C323B323A32482A3EEF0CF03E503A5C7D
:101766003F503B5840503C583D50800A426E4150D5
:10177600800A4258D8B0C2EF0BF0C4EF0BF0EFEF7F
:101786000BF03A503E5C426E3B503F58436E3C5025
:101796004058446E3D504158456EFF0E42243A6E05
:1017A600FF0E43203B6EFF0E44203C6EFF0E45208D
:1017B6003D6E800E461A496C4950D8A4E5EF0BF0F1
:1017C600E7EF0BF0F7EF0BF0010E3A26000E3B2287
:1017D6003C223D22F7EF0BF03E503A5E3F503B5A1B
:1017E60040503C5A41503D5A3A503B103C103D1037
:1017F600D8A400EF0CF002EF0CF037EF0CF04950D4
:10180600D8A408EF0CF00AEF0CF037EF0CF0000E3E
:101816003A6E000E3B6E000E3C6E000E3D6ED2EF31
:101826000CF0D8903A363B363C363D3649AE1EEF84
:101836000CF020EF0CF021EF0CF03A8049A026EFD7
:101846000CF028EF0CF02CEF0CF0D88049362EEF78
:101856000CF0D89049364850D8B434EF0CF036EF37
:101866000CF037EF0CF048063CAE3CEF0CF03EEFC8
:101876000CF014EF0CF0000E476E49AE45EF0CF07D
:1018860047EF0CF05FEF0CF049C042F07F0E4216B6
:10189600D8B450EF0CF052EF0CF056EF0CF0010EEE
:1018A600476E5FEF0CF03AA05BEF0CF05DEF0CF0CB
:1018B6005FEF0CF052EF0CF04750D8B465EF0CF028
:1018C60067EF0CF092EF0CF0010E3A26000E3B2269
:1018D6003C223D223DA072EF0CF074EF0CF092EF2B
:1018E6000CF03AC042F03BC043F03CC044F03DC06F
:1018F60045F04534453244324332423242C03AF032
:1019060043C03BF044C03CF045C03DF04828D8B445
:101916008FEF0CF091EF0CF092EF0CF0482A48286C
:10192600D8B498EF0CF09AEF0CF0A2EF0CF04850F8
:10193600D8A4A0EF0CF0A2EF0CF0B4EF0CF0000E60
:101946003A6E000E3B6E000E3C6E000E3D6E485029
:10195600D8A4B0EF0CF0B2EF0CF0B4EF0CF0000E20
:10196600466E48A0B9EF0CF0BBEF0CF0BEEF0CF0E2
:101976003C8EBFEF0CF03C9ED89048303D6E46AE94
:10198600C7EF0CF0C9EF0CF0CAEF0CF03D8E3AC071
:101996003AF03BC03BF03CC03CF03DC03DF012008D
:1019A6000600FACF0DF0FBCF0EF0D9CF0FF0DACF4D
:1019B60010F0F3CF11F0F4CF12F0F2A8E5EF0CF02F
:1019C600E7EF0CF0F0EF0CF0F2A2ECEF0CF0EEEF1C
:1019D6000CF0F0EF0CF098EC16F0F0A6F5EF0CF02A
:1019E600F7EF0CF000EF0DF0F0A0FCEF0CF0FEEFBF
:1019F6000CF000EF0DF096EC16F0F0A805EF0DF0E8
:101A060007EF0DF010EF0DF0F0A20CEF0DF00EEF5A
:101A16000DF010EF0DF094EC16F0F2A615EF0DF0A8
:101A260017EF0DF032EF0DF0F2A01CEF0DF01EEFE8
:101A36000DF032EF0DF081A823EF0DF025EF0DF03C
:101A460032EF0DF06104D8A42BEF0DF02DEF0DF061
:101A560032EF0DF0000E616E000E47EC16F0F2A6A6
:101A660037EF0DF039EF0DF054EF0DF0F2A03EEF29
:101A76000DF040EF0DF054EF0DF081B845EF0DF08D
:101A860047EF0DF054EF0DF06150D8A44DEF0DF077
:101A96004FEF0DF054EF0DF0010E616E010E47ECA5
:101AA60016F0F2A659EF0DF05BEF0DF076EF0DF0A4
:101AB600F2A060EF0DF062EF0DF076EF0DF081AA67
:101AC60067EF0DF069EF0DF076EF0DF06004D8A426
:101AD6006FEF0DF071EF0DF076EF0DF0000E606E0A
:101AE600000E3AEC16F0F2A67BEF0DF07DEF0DF04E
:101AF60098EF0DF0F2A082EF0DF084EF0DF098EF65
:101B06000DF081BA89EF0DF08BEF0DF098EF0DF027
:101B16006050D8A491EF0DF093EF0DF098EF0DF013
:101B2600010E606E010E3AEC16F0F2A69DEF0DF076
:101B36009FEF0DF0BAEF0DF0F2A0A4EF0DF0A6EFB7
:101B46000DF0BAEF0DF081ACABEF0DF0ADEF0DF08F
:101B5600BAEF0DF05F04D8A4B3EF0DF0B5EF0DF0BA
:101B6600BAEF0DF0000E5F6E000E2DEC16F0F2A629
:101B7600BFEF0DF0C1EF0DF0DCEF0DF0F2A0C6EFF8
:101B86000DF0C8EF0DF0DCEF0DF081BCCDEF0DF0E0
:101B9600CFEF0DF0DCEF0DF05F50D8A4D5EF0DF0D0
:101BA600D7EF0DF0DCEF0DF0010E5F6E010E2DECA0
:101BB60016F0F2A6E1EF0DF0E3EF0DF0FEEF0DF0FB
:101BC600F2A0E8EF0DF0EAEF0DF0FEEF0DF081AEBA
:101BD600EFEF0DF0F1EF0DF0FEEF0DF05E04D8A47F
:101BE600F7EF0DF0F9EF0DF0FEEF0DF0000E5E6E63
:101BF600000E20EC16F0F2A603EF0EF005EF0EF045
:101C060020EF0EF0F2A00AEF0EF00CEF0EF020EF30
:101C16000EF081BE11EF0EF013EF0EF020EF0EF076
:101C26005E50D8A419EF0EF01BEF0EF020EF0EF069
:101C3600010E5E6E010E20EC16F09DAC25EF0EF047
:101C460027EF0EF030EF0EF09EAC2CEF0EF02EEFDD
:101C56000EF030EF0EF0A0EC16F0F2AA35EF0EF013
:101C660037EF0EF040EF0EF0F2A43CEF0EF03EEF31
:101C76000EF040EF0EF074EC16F09DA045EF0EF05E
:101C860047EF0EF050EF0EF09EA04CEF0EF04EEF29
:101C96000EF050EF0EF081EC16F09DA255EF0EF00F
:101CA60057EF0EF060EF0EF09EA25CEF0EF05EEFC7
:101CB6000EF060EF0EF087EC16F0A0A265EF0EF0C6
:101CC60067EF0EF070EF0EF0A1A26CEF0EF06EEF64
:101CD6000EF070EF0EF06DEC16F09DA875EF0EF09D
:101CE60077EF0EF080EF0EF09EA87CEF0EF07EEF01
:101CF6000EF080EF0EF09AEC16F09DAA85EF0EF02E
:101D060087EF0EF090EF0EF09EAA8CEF0EF08EEF9E
:101D16000EF090EF0EF0E9EC15F09DA695EF0EF0A3
:101D260097EF0EF0A0EF0EF09EA69CEF0EF09EEF42
:101D36000EF0A0EF0EF090EC16F0A0A6A5EF0EF0B8
:101D4600A7EF0EF0B0EF0EF0A1A6ACEF0EF0AEEFDF
:101D56000EF0B0EF0EF092EC16F09DA6B5EF0EF079
:101D6600B7EF0EF0C0EF0EF09EA6BCEF0EF0BEEF82
:101D76000EF0C0EF0EF08EEC16F09DA4C5EF0EF03F
:101D8600C7EF0EF0D0EF0EF09EA4CCEF0EF0CEEF24
:101D96000EF0D0EF0EF09EEC16F0A0A0D5EF0EF0F0
:101DA600D7EF0EF0E0EF0EF0A1A0DCEF0EF0DEEFC5
:101DB6000EF0E0EF0EF09CEC16F012C0F4FF11C02E
:101DC600F3FF10C0DAFF0FC0D9FF0EC0FBFF0DC036
:101DD600FAFF6D9211002450800B316E245024249A
:101DE600386E23AEF9EF0EF0FBEF0EF0FCEF0EF0BF
:101DF60038803850D8B402EF0FF004EF0FF019EF27
:101E06000FF03828D8A40AEF0FF00CEF0FF014EFFC
:101E16000FF0000E216E000E226E000E236E000ED5
:101E2600246E238E000E246E21EF0FF0000E216E1D
:101E3600000E226E000E236E000E246E2850800BBC
:101E4600311A28502824396E27AE2CEF0FF02EEFCA
:101E56000FF02FEF0FF039803950D8B435EF0FF06F
:101E660037EF0FF04CEF0FF03928D8A43DEF0FF005
:101E76003FEF0FF047EF0FF0000E256E000E266EB7
:101E8600000E276E000E286E278E000E286E54EF69
:101E96000FF0000E256E000E266E000E276E000E49
:101EA600286E2550261027102810D8A45DEF0FF0B5
:101EB6005FEF0FF077EF0FF0000E216E000E226E2F
:101EC600000E236E000E246E800E23127F0E241247
:101ED6003150241221C021F022C022F023C023F069
:101EE60024C024F0BAEF10F03850D8A47DEF0FF0DC
:101EF6007FEF0FF089EF0FF0000E216E000E226EBD
:101F0600000E236E000E246EBAEF10F0395038C062
:101F160029F02A6A295E000E2A5A7F0E2924326E7B
:101F2600000E2A20336E21C02DF022C02EF023C0D1
:101F36002FF024C030F0000E216E000E226E000E2F
:101F4600236E000E246E000E346E000E356E000EEB
:101F5600366E000E376E000E396EEAEF0FF039500E
:101F6600D8B4B8EF0FF0BAEF0FF0D1EF0FF0D8906A
:101F76002D362E362F363036D89021362236233659
:101F8600243637AEC9EF0FF0CBEF0FF0CCEF0FF0E2
:101F96002180D890343635363636373625502D5C86
:101FA60026502E5827502F5828503058D8A0DEEFEC
:101FB6000FF0E0EF0FF0E9EF0FF0378C25502D5EB4
:101FC60026502E5A27502F5A2850305A392A190E81
:101FD6003964F0EF0FF0F2EF0FF0B2EF0FF02D5083
:101FE6002E102F103010D8B4FBEF0FF0FDEF0FF0CE
:101FF60015EF10F0348015EF10F0D8902136223608
:102006002336243637AE0AEF10F00CEF10F00DEF42
:1020160010F02180D89034363536363637363206CB
:10202600D8A0330623AE1AEF10F01CEF10F000EF25
:1020360010F0000E396E37AE23EF10F025EF10F0DA
:1020460049EF10F0FF0E3414296EFF0E35142A6E78
:10205600FF0E36142B6E7F0E37142C6E29502A1065
:102066002B102C10D8B43AEF10F03CEF10F040EFE4
:1020760010F0010E396E49EF10F021A045EF10F077
:1020860047EF10F049EF10F03CEF10F03950D8B49C
:102096004FEF10F051EF10F075EF10F0010E212602
:1020A600000E22222322242224A05CEF10F05EEFF1
:1020B60010F075EF10F021C029F022C02AF023C0DD
:1020C6002BF024C02CF02C342C322B322A3229321D
:1020D60029C021F02AC022F02BC023F02CC024F006
:1020E600324A332A33BE80EF10F0335008E13228EB
:1020F600D8A080EF10F082EF10F08DEF10F0000EF8
:10210600336E3268000E216E000E226E000E236EB4
:10211600000E246E33BE9AEF10F0335006E13204FF
:10212600D8B098EF10F09AEF10F0A8EF10F0000E6C
:10213600336E000E326E000E216E000E226E000E01
:10214600236E000E246E000E316E32C038F038A0B9
:10215600AFEF10F0B1EF10F0B4EF10F0238EB5EF43
:1021660010F0239ED8903830246E6BEF0FF01200DB
:102176001B6E1B50D8B4C2EF10F0C4EF10F0E6EFA0
:1021860010F016BECBEF10F0C9EF10F0E6EF10F02E
:1021960013C017F014C018F015C019F016C01AF0C5
:1021A600171E181E191E1A1E172A000E182219228B
:1021B6001A2217C01DF018C01EF019C01FF01AC051
:1021C60020F0EEEF10F013C01DF014C01EF015C085
:1021D6001FF016C020F01350141015101610D8A4B6
:1021E600F7EF10F0F9EF10F003EF11F0000E136E99
:1021F600000E146E000E156E000E166E94EF11F0A2
:10220600960E1C6E0DEF11F01C2AD89020321F324C
:102216001E321D32000E1D14176E000E1E14186E8F
:10222600000E1F14196EFE0E20141A6E1750181089
:1022360019101A10D8A422EF11F024EF11F007EFAD
:1022460011F032EF11F01C2A010E1D26000E1E227F
:102256001F222022D89020321F321E321D32000E3D
:102266001D14176E000E1E14186E000E1F14196E24
:10227600FF0E20141A6E1750181019101A10D8A431
:1022860047EF11F049EF11F026EF11F051EF11F081
:102296001C06D8901D361E361F3620361FBE56EF3A
:1022A60011F058EF11F060EF11F0020E1C605EEFB6
:1022B60011F060EF11F04BEF11F01CB065EF11F06B
:1022C60067EF11F068EF11F01F9ED8901C321CC00A
:1022D60017F0186A196A1A6A17C01AF0196A186A82
:1022E600176A17501D1218501E1219501F121A5035
:1022F60020121B50D8B482EF11F084EF11F08CEF4E
:1023060011F016BE8BEF11F089EF11F08CEF11F082
:10231600208E1DC013F01EC014F01FC015F020C083
:1023260016F01200010E196E1350D8B49DEF11F07D
:102336009FEF11F0AFEF11F01350D96EDA6ADF306C
:10234600E832E832070B146E070E1464ADEF11F095
:10235600AFEF11F006EF12F0000E196E1CEF12F03F
:102366001350D96EDA6ADF30E832E832070B146EA2
:10237600010E156E142AC2EF11F0D8901536142EE0
:10238600C0EF11F01550FF0A166E1350D96EDA6AB7
:10239600DF50070B020DF350D30FD96EDA6ADECF8A
:1023A60017F0DDCF18F017C0D9FF18C0DAFF1650A6
:1023B600DF161CEF12F01350D96EDA6ADF30E832FE
:1023C600E832070B146E010E156E142AEDEF11F0AC
:1023D600D8901536142EEBEF11F01350D96EDA6A39
:1023E600DF50070B020DF350D30FD96EDA6ADECF3A
:1023F60016F0DDCF17F016C0D9FF17C0DAFF15505B
:10240600DF121CEF12F01350D96EDA6ADFBC0EEF42
:1024160012F011EF12F0010E12EF12F0000E000A88
:10242600D8B4B3EF11F0010AD8B4DEEF11F0AFEF74
:1024360011F019501200010E1A6E1350D8B426EF7F
:1024460012F028EF12F038EF12F01350D96EDA6A54
:10245600DF30E832E832070B156E070E156436EFEB
:1024660012F038EF12F08FEF12F0000E1A6EA4EF92
:1024760012F01350D96EDA6ADF30E832E832070B11
:10248600156E010E166E152A4BEF12F0D890163601
:10249600152E49EF12F01650FF0A176E1350D96E1B
:1024A600DA6ADF50070B020DF350C90FD96EDA6AEC
:1024B600DECF18F0DDCF19F018C0D9FF19C0DAFF4A
:1024C6001750DF16A4EF12F01350D96EDA6ADF3018
:1024D600E832E832070B156E010E166E152A76EFF6
:1024E60012F0D8901636152E74EF12F01350D96EDE
:1024F600DA6ADF50070B020DF350C90FD96EDA6A9C
:10250600DECF17F0DDCF18F017C0D9FF18C0DAFFFD
:102516001650DF12A4EF12F01450156E166A1650FC
:10252600000AD8B499EF12F038EF12F01550000AED
:10253600D8B43CEF12F0010AD8B467EF12F038EFC6
:1025460012F01A501200153416341C6E1C50D8A402
:10255600AFEF12F0B1EF12F0BBEF12F0000E136EF8
:10256600000E146E000E156E000E166E28EF13F098
:1025760013C017F014C018F015C019F016C01AF0E1
:10258600200ECBEF12F0D8901A32193218321732C9
:10259600E82EC6EF12F017501B6E158EFF0E13169F
:1025A600FF0E1416FF0E1516000E1616960E1C5E5E
:1025B6001CBEE2EF12F0E0EF12F0F8EF12F01C5042
:1025C600800A970FD8B0EAEF12F0ECEF12F0EEEFB8
:1025D60012F0B1EF12F0D8901632153214321332CF
:1025E6001C3EEEEF12F010EF13F01F0E1C64FEEF10
:1025F60012F000EF13F008EF13F0B1EF12F0D890DD
:1026060013361436153616361C061C50D8A40EEF93
:1026160013F010EF13F002EF13F01B50D8B416EFBF
:1026260013F018EF13F020EF13F0161E151E141EEC
:10263600136C000E14221522162213C013F014C0B8
:1026460014F015C015F016C016F012000150D8B4DB
:102656002FEF13F031EF13F041EF13F00150D96E65
:10266600DA6ADF30E832E832070B036E070E0364DE
:102676003FEF13F041EF13F096EF13F0ABEF13F0CB
:102686000150D96EDA6ADF30E832E832070B036EA2
:10269600010E046E032A52EF13F0D8900436032E6F
:1026A60050EF13F00450FF0A056E0150D96EDA6A36
:1026B600DF50070B020DF350C90FD96EDA6ADECF71
:1026C60006F0DDCF07F006C0D9FF07C0DAFF0550D8
:1026D600DF16ABEF13F00150D96EDA6ADF30E8325D
:1026E600E832070B036E010E046E032A7DEF13F02A
:1026F600D8900436032E7BEF13F00150D96EDA6AB8
:10270600DF50070B020DF350C90FD96EDA6ADECF20
:1027160005F0DDCF06F005C0D9FF06C0DAFF04508C
:10272600DF12ABEF13F00250036E046A0450000A86
:10273600D8B4A0EF13F041EF13F00350000AD8B459
:1027460043EF13F0010AD8B46EEF13F041EF13F024
:1027560012001350D96EDA6A080ED926DFA0B6EF3A
:1027660013F0B8EF13F011EF14F0AB881350D96ED5
:10277600DA6A0C0ED926DECF8AF0DDCF8BF0135045
:10278600D96EDA6A0E0ED926DECF88F0DDCF89F053
:102796001350D96EDA6A100ED926DECF86F0DDCF59
:1027A60087F01350D96EDA6A080ED926DFA2DEEF5B
:1027B60013F0E0EF13F0E6EF13F09D8A9D8AF28E98
:1027C600F28CF3EF13F01350D96EDA6A080ED9269D
:1027D600DFB2F0EF13F0F2EF13F0F3EF13F09D9A80
:1027E6001350D96EDA6A080ED926DFA4FDEF13F06E
:1027F600FFEF13F002EF14F0AB8C11EF14F013504F
:10280600D96EDA6A080ED926DFB40CEF14F00EEF93
:1028160014F011EF14F0AB9C11EF14F012001350EA
:10282600D96EDA6A060ED926DFA01CEF14F01EEF69
:1028360014F065EF14F0AC8A1350D96EDA6A0A0EFA
:10284600D926DECF8CF0DDCF8DF01350D96EDA6A43
:10285600060ED926DFA232EF14F034EF14F03AEF69
:1028660014F09D889D88F28EF28C47EF14F0135079
:10287600D96EDA6A060ED926DFB244EF14F046EFB7
:1028860014F047EF14F09D981350D96EDA6A060ECD
:10289600D926DFA451EF14F053EF14F056EF14F0DD
:1028A600AC8C65EF14F01350D96EDA6A060ED92691
:1028B600DFB460EF14F062EF14F065EF14F0AC9C37
:1028C60065EF14F012006C0E016E11EC16F0610E3D
:1028D6006C18D8A471EF14F073EF14F085EF14F0B0
:1028E600620E086ED9EC14F0630E54EC16F0030E6B
:1028F6000C6E8A0E0B6E560EE82EFED70B2EFCD7EC
:102906000C2EFAD7620E6C18D8A48CEF14F08EEF4A
:1029160014F0A0EF14F0620E086E0EEC15F0640EC3
:1029260054EC16F0030E0C6E8A0E0B6E560EE82E45
:10293600FED70B2EFCD70C2EFAD71200010E206EF6
:102946001E50D8A4A9EF14F0ABEF14F0AFEF14F0BB
:10295600000E206ED7EF14F06BC021F01E50D96E1A
:10296600DA6ADF500F0B1F6E21501F18F80B1F1865
:10297600216E1E50D96EDA6ADF38070B1F6E1F46AE
:102986001F461F4621501F18C70B1F18216E219C7A
:102996001E50D96EDA6ADFAE02D0218E01D0219E9A
:1029A600210E1B6E74EC15F0205012000850D8A4AE
:1029B600DFEF14F0E1EF14F0E3EF14F00DEF15F094
:1029C6006AC00AF00850D96EDA6ADF500F0B096E3A
:1029D6000A500918F80B09180A6E0850D96EDA6AF7
:1029E600DF38070B096E0946094609460A500918D9
:1029F600C70B09180A6E0A9C0850D96EDA6ADFAE50
:102A060002D00A8E01D00A9E0A0E016E010E026ED7
:102A160029EC13F012000850D8A414EF15F016EFA5
:102A260015F018EF15F042EF15F069C00AF00850DE
:102A3600D96EDA6ADF500F0B096E0A500918F80BC7
:102A460009180A6E0850D96EDA6ADF38070B096E64
:102A56000946094609460A500918C70B09180A6E9D
:102A66000A9C0850D96EDA6ADFAE02D00A8E01D00F
:102A76000A9E0A0E016E000E026E29EC13F0120079
:102A8600040EF66E2C0EF76E000EF86E00EEBFF01A
:102A960010EE1EF00900F5CFEEFFE550E150FAE129
:102AA600F60EF66E2C0EF76E000EF86E00EE57F070
:102AB60010EE0CF00900F5CFEEFFE550E150FAE11B
:102AC60000EE80F03F0EEE6AE806FDE100EE63F0F0
:102AD6000A0EEE6AE806FDE16D906D92000161EF67
:102AE60016F01B50D8B47AEF15F07CEF15F08CEF8A
:102AF60015F01B50D96EDA6ADF30E832E832070B80
:102B06001C6E070E1C648AEF15F08CEF15F090EF23
:102B160015F0000E1D6EA1EF15F01BC013F095EC1D
:102B260011F01D6E1BC013F01B50D96EDA6A000E31
:102B3600DFBE010E146E1EEC12F01D6E1D5012004B
:102B4600800E0001DD6F250EDE6F000EDF6F000EBA
:102B5600E06F000EE16FE381E383E395E581E583B2
:102B6600E595000EE76F000EE86FCC0EE96F280EB4
:102B7600EA6F000EEB6F000EEC6F000EED6F000EAD
:102B8600EE6FDD0E556EC9EC15F012005550D8A447
:102B9600CFEF15F0D1EF15F0D5EF15F0000E566E0C
:102BA600E7EF15F0AB9E948E948C55C04AF00BEC73
:102BB60008F055C013F012EC14F055C013F0ACEC4D
:102BC60013F0AB8E010E566E5650120000018A515C
:102BD6008B11D8B4F1EF15F0F3EF15F001EF16F005
:102BE60002D8FFEF15F00500FA6E8A51FD6E8B5183
:102BF600FE6EFF6AFA50120001EF16F01200800F07
:102C0600810F820F830F840F890F8A0F8B0F8C0F12
:102C16008D0F920F930F940F950F960F9EAA16EF96
:102C260016F018EF16F01FEF16F00150D96EDA6A9B
:102C3600AECFDFFF1FEF16F01200016EF2900150CB
:102C4600D8A428EF16F02AEF16F02CEF16F02CEF8A
:102C560016F01200016EF2900150D8A435EF16F06E
:102C660037EF16F039EF16F039EF16F01200016E55
:102C7600F2900150D8A442EF16F044EF16F046EF5A
:102C860016F046EF16F01200016EF2900150D8A42D
:102C96004FEF16F051EF16F053EF16F053EF16F014
:102CA6001200016EACA25AEF16F05CEF16F055EF6B
:102CB60016F09D8801C0ADFF010E12008BEC16F0D8
:102CC600A3EC15F0620E1E6EA1EC14F069EF16F07F
:102CD60007EF00F0A19200018F51B36E8EC0B2FFD4
:102CE6001200F29400019751D76E96C0D6FF1200DB
:102CF600685A622A1A622A01010101039E906450F1
:102D0600CF6E63C0CEFF12009E92BEC0CCFF1200F3
:102D1600A2EC16F012009E9612009E961200A19644
:102D26001200F0921200F0901200F29212009D989A
:102D36001200A19012009E9412009E9C1200120096
:020000040020DA
:08000000FFFFFFFFFFFFFFFF00
:020000040030CA
:0E000000FF020912FF8181FF0FC00FE00F40C9
:00000001FF
