:0400000007EF00F016
:0A00080077820BED08F00EEF0AF00E
:10100000003738392F3435362A3132332D23303DED
:051010002B2569000022
:101016000600F2A811EF08F013EF08F01CEF08F035
:10102600F2A218EF08F01AEF08F01CEF08F0B1EC86
:101036000AF0F0A621EF08F023EF08F02CEF08F0F5
:10104600F0A028EF08F02AEF08F02CEF08F0AFEC3C
:101056000AF0F0A831EF08F033EF08F03CEF08F0A3
:10106600F0A238EF08F03AEF08F03CEF08F0ADECEC
:101076000AF0F2A641EF08F043EF08F05EEF08F041
:10108600F2A048EF08F04AEF08F05EEF08F081A8FA
:101096004FEF08F051EF08F05EEF08F07504D8A4A2
:1010A60057EF08F059EF08F05EEF08F0000E756E86
:1010B600000E78EC0AF0F2A663EF08F065EF08F090
:1010C60080EF08F0F2A06AEF08F06CEF08F080EF0E
:1010D60008F081B871EF08F073EF08F080EF08F0C0
:1010E6007550D8A479EF08F07BEF08F080EF08F090
:1010F600010E756E010E78EC0AF0F2A685EF08F087
:1011060087EF08F0A2EF08F0F2A08CEF08F08EEF60
:1011160008F0A2EF08F081AA93EF08F095EF08F027
:10112600A2EF08F07404D8A49BEF08F09DEF08F036
:10113600A2EF08F0000E746E000E6BEC0AF0F2A639
:10114600A7EF08F0A9EF08F0C4EF08F0F2A0AEEFA1
:1011560008F0B0EF08F0C4EF08F081BAB5EF08F078
:10116600B7EF08F0C4EF08F07450D8A4BDEF08F04C
:10117600BFEF08F0C4EF08F0010E746E010E6BECC1
:101186000AF0F2A6C9EF08F0CBEF08F0E6EF08F098
:10119600F2A0D0EF08F0D2EF08F0E6EF08F081AC4D
:1011A600D7EF08F0D9EF08F0E6EF08F07304D8A4FB
:1011B600DFEF08F0E1EF08F0E6EF08F0000E736EDF
:1011C600000E5EEC0AF0F2A6EBEF08F0EDEF08F089
:1011D60008EF09F0F2A0F2EF08F0F4EF08F008EFDC
:1011E60009F081BCF9EF08F0FBEF08F008EF09F011
:1011F6007350D8A401EF09F003EF09F008EF09F0E6
:10120600010E736E010E5EEC0AF0F2A60DEF09F008
:101216000FEF09F02AEF09F0F2A014EF09F016EF2C
:1012260009F02AEF09F081AE1BEF09F01DEF09F076
:101236002AEF09F07204D8A423EF09F025EF09F08C
:101246002AEF09F0000E726E000E51EC0AF0F2A6BB
:101256002FEF09F031EF09F04CEF09F0F2A036EF6D
:1012660009F038EF09F04CEF09F081BE3DEF09F0C7
:101276003FEF09F04CEF09F07250D8A445EF09F0A2
:1012860047EF09F04CEF09F0010E726E010E51ECBA
:101296000AF09DAC51EF09F053EF09F05CEF09F04D
:1012A6009EAC58EF09F05AEF09F05CEF09F0B9EC83
:1012B6000AF0F2AA61EF09F063EF09F06CEF09F0AA
:1012C600F2A468EF09F06AEF09F06CEF09F097EC09
:1012D6000AF09DA071EF09F073EF09F07CEF09F0B9
:1012E6009EA078EF09F07AEF09F07CEF09F091EC17
:1012F6000AF09DA281EF09F083EF09F08CEF09F067
:101306009EA288EF09F08AEF09F08CEF09F0A2ECB3
:101316000AF0A0A291EF09F093EF09F09CEF09F013
:10132600A1A298EF09F09AEF09F09CEF09F08BEC77
:101336000AF09DA8A1EF09F0A3EF09F0ACEF09F0C0
:101346009EA8A8EF09F0AAEF09F0ACEF09F0B3ECFC
:101356000AF09DAAB1EF09F0B3EF09F0BCEF09F06E
:101366009EAAB8EF09F0BAEF09F0BCEF09F0BDECA0
:101376000AF09DA6C1EF09F0C3EF09F0CCEF09F022
:101386009EA6C8EF09F0CAEF09F0CCEF09F0A9EC68
:101396000AF0A0A6D1EF09F0D3EF09F0DCEF09F0CF
:1013A600A1A6D8EF09F0DAEF09F0DCEF09F0ABEC13
:1013B6000AF09DA6E1EF09F0E3EF09F0ECEF09F082
:1013C6009EA6E8EF09F0EAEF09F0ECEF09F0BCECB5
:1013D6000AF09DA4F1EF09F0F3EF09F0FCEF09F034
:1013E6009EA4F8EF09F0FAEF09F0FCEF09F0B7EC6C
:1013F6000AF0A0A001EF0AF003EF0AF00CEF0AF0E2
:10140600A1A008EF0AF00AEF0AF00CEF0AF0B5EC1B
:101416000AF0779211003A0EF66E150EF76E000E70
:10142600F86E00EE80F010EE0AF00900F5CFEEFF40
:10143600E550E150FAE1720EF66E140EF76E000EEC
:10144600F86E00EE47F010EE2FF00900F5CFEEFF34
:10145600E550E150FAE100EE01F0460EEE6AE806CC
:10146600FDE177907792000185EF0AF0800F810FFA
:10147600820F830F840F890F8A0F8B0F8C0F8D0FAE
:10148600920F930F940F950F960F020A121A222AA3
:0B149600685A622A1A622A0101010153
:1014A200766EF2907650D8A459EF0AF05BEF0AF00C
:1014B2005DEF0AF05DEF0AF01200766EF290765060
:1014C200D8A466EF0AF068EF0AF06AEF0AF06AEF52
:1014D2000AF01200766EF2907650D8A473EF0AF0FA
:1014E20075EF0AF077EF0AF077EF0AF01200766EE6
:1014F200F2907650D8A480EF0AF082EF0AF084EFDF
:101502000AF084EF0AF01200A6EC0AF087EF0AF064
:1015120007EF00F0A1921050B36E0FC0B2FF12009D
:101522009E901650CF6E15C0CEFF1200F2941A5044
:10153200D76E19C0D6FF1200323A030B131B232BAE
:10154200333B9E923FC0CCFF1200BBEC0AF012006C
:101552009E961200A1961200F0921200F0901200D4
:10156200F29212009D981200A19012009E94120015
:0A1572009E9C1200120012001200ED
:020000040020DA
:08000000FFFFFFFFFFFFFFFF00
:020000040030CA
:0E000000FF020912FF8181FF0FC00FE00F40C9
:00000001FF
