:0400000007EF00F016
:0A00080073820BED08F00EEF0AF012
:10100000003738392F3435362A3132332D23303DED
:051010002B2569000022
:101016000600F2A811EF08F013EF08F01CEF08F035
:10102600F2A218EF08F01AEF08F01CEF08F09BEC9C
:101036000AF0F0A621EF08F023EF08F02CEF08F0F5
:10104600F0A028EF08F02AEF08F02CEF08F099EC52
:101056000AF0F0A831EF08F033EF08F03CEF08F0A3
:10106600F0A238EF08F03AEF08F03CEF08F097EC02
:101076000AF0F2A641EF08F043EF08F05EEF08F041
:10108600F2A048EF08F04AEF08F05EEF08F081A8FA
:101096004FEF08F051EF08F05EEF08F07104D8A4A6
:1010A60057EF08F059EF08F05EEF08F0000E716E8A
:1010B600000E65EC0AF0F2A663EF08F065EF08F0A3
:1010C60080EF08F0F2A06AEF08F06CEF08F080EF0E
:1010D60008F081B871EF08F073EF08F080EF08F0C0
:1010E6007150D8A479EF08F07BEF08F080EF08F094
:1010F600010E716E010E65EC0AF0F2A685EF08F09E
:1011060087EF08F0A2EF08F0F2A08CEF08F08EEF60
:1011160008F0A2EF08F081AA93EF08F095EF08F027
:10112600A2EF08F07004D8A49BEF08F09DEF08F03A
:10113600A2EF08F0000E706E000E58EC0AF0F2A650
:10114600A7EF08F0A9EF08F0C4EF08F0F2A0AEEFA1
:1011560008F0B0EF08F0C4EF08F081BAB5EF08F078
:10116600B7EF08F0C4EF08F07050D8A4BDEF08F050
:10117600BFEF08F0C4EF08F0010E706E010E58ECD8
:101186000AF0F2A6C9EF08F0CBEF08F0E6EF08F098
:10119600F2A0D0EF08F0D2EF08F0E6EF08F081AC4D
:1011A600D7EF08F0D9EF08F0E6EF08F06F04D8A4FF
:1011B600DFEF08F0E1EF08F0E6EF08F0000E6F6EE3
:1011C600000E4BEC0AF0F2A6EBEF08F0EDEF08F09C
:1011D60008EF09F0F2A0F2EF08F0F4EF08F008EFDC
:1011E60009F081BCF9EF08F0FBEF08F008EF09F011
:1011F6006F50D8A401EF09F003EF09F008EF09F0EA
:10120600010E6F6E010E4BEC0AF0F2A60DEF09F01F
:101216000FEF09F02AEF09F0F2A014EF09F016EF2C
:1012260009F02AEF09F081AE1BEF09F01DEF09F076
:101236002AEF09F06E04D8A423EF09F025EF09F090
:101246002AEF09F0000E6E6E000E3EEC0AF0F2A6D2
:101256002FEF09F031EF09F04CEF09F0F2A036EF6D
:1012660009F038EF09F04CEF09F081BE3DEF09F0C7
:101276003FEF09F04CEF09F06E50D8A445EF09F0A6
:1012860047EF09F04CEF09F0010E6E6E010E3EECD1
:101296000AF09DAC51EF09F053EF09F05CEF09F04D
:1012A6009EAC58EF09F05AEF09F05CEF09F0A3EC99
:1012B6000AF0F2AA61EF09F063EF09F06CEF09F0AA
:1012C600F2A468EF09F06AEF09F06CEF09F084EC1C
:1012D6000AF09DA071EF09F073EF09F07CEF09F0B9
:1012E6009EA078EF09F07AEF09F07CEF09F07EEC2A
:1012F6000AF09DA281EF09F083EF09F08CEF09F067
:101306009EA288EF09F08AEF09F08CEF09F08AECCB
:101316000AF0A0A291EF09F093EF09F09CEF09F013
:10132600A1A298EF09F09AEF09F09CEF09F078EC8A
:101336000AF09DA8A1EF09F0A3EF09F0ACEF09F0C0
:101346009EA8A8EF09F0AAEF09F0ACEF09F09DEC12
:101356000AF09DAAB1EF09F0B3EF09F0BCEF09F06E
:101366009EAAB8EF09F0BAEF09F0BCEF09F0A6ECB7
:101376000AF09DA6C1EF09F0C3EF09F0CCEF09F022
:101386009EA6C8EF09F0CAEF09F0CCEF09F093EC7E
:101396000AF0A0A6D1EF09F0D3EF09F0DCEF09F0CF
:1013A600A1A6D8EF09F0DAEF09F0DCEF09F095EC29
:1013B6000AF09DA6E1EF09F0E3EF09F0ECEF09F082
:1013C6009EA6E8EF09F0EAEF09F0ECEF09F091ECE0
:1013D6000AF09DA4F1EF09F0F3EF09F0FCEF09F034
:1013E6009EA4F8EF09F0FAEF09F0FCEF09F0A1EC82
:1013F6000AF0A0A001EF0AF003EF0AF00CEF0AF0E2
:10140600A1A008EF0AF00AEF0AF00CEF0AF09FEC31
:101416000AF073921100520EF66E140EF76E000E5D
:10142600F86E00EE49F010EE29F00900F5CFEEFF58
:10143600E550E150FAE100EE01F0480EEE6AE806EA
:10144600FDE173907392000172EF0AF0800F810F35
:10145600820F830F840F890F8A0F8B0F8C0F8D0FCE
:10146600920F930F940F950F960F685A622A1A627D
:051476002A0101010143
:10147C00726EF2907250D8A446EF0AF048EF0AF060
:10148C004AEF0AF04AEF0AF01200726EF2907250B4
:10149C00D8A453EF0AF055EF0AF057EF0AF057EFC4
:1014AC000AF01200726EF2907250D8A460EF0AF03B
:1014BC0062EF0AF064EF0AF064EF0AF01200726E49
:1014CC00F2907250D8A46DEF0AF06FEF0AF071EF42
:1014DC000AF071EF0AF012008EEC0AF074EF0AF0C9
:1014EC0007EF00F0A1921050B36E0FC0B2FF1200C4
:1014FC009E901650CF6E15C0CEFF1200F2941A506B
:10150C00D76E19C0D6FF12009E9241C0CCFF1200BC
:10151C00A5EC0AF012009E9612009E961200A1965F
:10152C001200F0921200F0901200F29212009D98AC
:10153C001200A19012009E9412009E9C12001200A8
:02154C0012008B
:020000040020DA
:08000000FFFFFFFFFFFFFFFF00
:020000040030CA
:0E000000FF020912FF8181FF0FC00FE00F40C9
:00000001FF
